:020000040800F2
:10000000E0D00120FD6500081D8100081F81000867
:1000100021810008238100082581000800000000DC
:100020000000000000000000000000002781000820
:100030002981000800000000771801088184000869
:10004000176600081766000817660008176600089C
:10005000176600081766000817660008176600088C
:10006000176600081766000817660008176600087C
:10007000176600081766000817660008176600086C
:10008000176600081766000817660008176600085C
:10009000176600081766000817660008176600084C
:1000A000176600081766000817660008176600083C
:1000B000D7250008176600081766000817660008AD
:1000C000176600081766000817660008176600081C
:1000D0001766000861860008F15300082F560008D3
:1000E000372D000817660008176600081766000815
:1000F00017660008176600081766000817660008EC
:1001000017660008C347000817660008176600084E
:10011000CB5E00081766000817660008176600081F
:100120005B5200081766000817660008176600088B
:1001300017660008176600081766000817660008AB
:10014000176600081766000817660008176600089B
:10015000176600081766000817660008176600088B
:10016000176600081766000817660008176600087B
:10017000176600081766000817660008176600086B
:10018000176600081766000800F002F800F075F81E
:100190000AA090E8000C82448344AAF10107DA45E2
:1001A00001D100F06AF8AFF2090EBAE80F0013F0BF
:1001B000010F18BFFB1A43F00103184774F6030040
:1001C00094F603000A444FF0000C10F8013B13F0C2
:1001D000070408BF10F8014B1D1108BF10F8015BA0
:1001E000641E05D010F8016B641E01F8016BF9D193
:1001F00013F0080F1EBF10F8014BAD1C0C1B09D1EA
:100200006D1E58BF01F801CBFAD505E014F8016B5B
:1002100001F8016B6D1EF9D59142D6D370470000ED
:100220000023002400250026103A28BF78C1FBD8FF
:10023000520728BF30C148BF0B607047662913F0D2
:100240000C86642910F04E81732910F0AA850020D5
:1002500070471FB513F0F7FD10F0F4FD0400002007
:10026000002112F021FF401C60600020002112F0EC
:1002700005FFE0601FBD10B510BD10F0EBFE11468C
:10028000FFF7E7FF00F0CFFB10F009FF03B4FFF723
:10029000F2FF03BC08F070F930BF72B6704762B667
:1002A000704780F3088870470A2008F03BF9FBE7A5
:1002B000F94C86B00222F749206809F058FBA246A3
:1002C000DFF8D893F64CDFF8DCB399ED030A484623
:1002D000B1EE400A84ED040AD9ED040AF1EE600A99
:1002E000C4ED050A99ED051AB1EE411A84ED061A1E
:1002F000D9ED001AC4ED071A99ED012A84ED082AF8
:10030000D9ED022AC4ED092A99ED063A84ED0A3A9C
:1003100090ED073A84ED0B3A90ED083A84ED0C3AF3
:1003200090ED093A84ED0D3A90ED0A3A84ED0E3ADB
:1003300090ED0B3A84ED0F3A016BD9F83400C4E923
:10034000161001F074FA9BED000AD74884ED130AE9
:10035000002390ED000AD54884ED140A1A4690ED6A
:10036000000AD34884ED150AD4ED040A90ED000A82
:10037000D048194660EE201A90ED001A94ED050A57
:10038000CD4841EE001A90ED002A94ED061ACB48B4
:1003900042EE011AC4ED101AD0ED001AC84861EE01
:1003A000A01A90ED002AC74842EE001A90ED002AEC
:1003B000C54842EE011AC4ED111AD0ED001AC34827
:1003C00061EEA00AD0ED001AC14841EE800A90ED1E
:1003D000000A04A840EE010AC4ED120A0090BD48CC
:1003E0000DF07EFBD4ED150A9FEDBB0A012360EEF4
:1003F000800AFDEEE00A10EE900AD4ED140A02B273
:1004000060EE800AFDEEE00A10EE900AD4ED130AC9
:1004100001B220EE800ABDEEC00A10EE100A00B252
:1004200002F0A3F904AA0021AA480DF089FC606D2E
:1004300013F098FC07468846206D13F093FC0546A0
:100440000E46E06C13F08EFC41EC100B8DE8E001E1
:10045000A04853EC102BA1A1783010F005F89D486E
:10046000783010F046F99B490246A14B7831DAF812
:10047000000009F0D1FB974804AA002128380EF0AB
:10048000C1F90A2008F04EF81FE71CB5844C824FD2
:1004900001AD002600238F481A46194628380095DA
:1004A0000EF073F800231A4619468A4800950DF09D
:1004B00017FB20886421484300B2002102F0AAFA09
:1004C00001AA002183480DF03BFC2068401C2060FD
:1004D0006428DFDB386809F066FC2660DAE7704CD8
:1004E00000254FF4FA766D1CADB25CE004F017FE07
:1004F00084ED010A9FED7F1AC0EE010A10EE900A0A
:1005000013F030FC41EC100B9FED7B1B11F024FE2F
:100510009FED7B1B51EC100B53EC112B13F060FA89
:100520009FED791B53EC112B13F026F912F0DEFD31
:100530009FED770AA060774984ED030A002041F21D
:10054000707231F81030D4ED030AC3F30B0300EEE0
:10055000103A401C80B2B8EE400A904230EE200AB9
:1005600084ED030AEDD3F0EE400A9FED6B1A80EEA6
:10057000810ADFED6A0A20EE200AF2EE040A20EE7C
:10058000200A84ED030A94ED120ADFED650A514852
:1005900030EE600A2C3001F0F2FE4E4894ED020A73
:1005A0002C3001F055FF0A2007F0BCFFB5429AD36A
:1005B0009CE710B59FED5B1ADFED5B0A9FED5B0AD0
:1005C00044482C3001F09FFE04F0A9FD344C84ED2A
:1005D000010A9FED481AC0EE010A10EE900A13F0CE
:1005E000C1FB41EC100B9FED521B11F0B5FD9FEDCF
:1005F000441B51EC100B53EC112B13F0F1F99FED50
:10060000421B53EC112B13F0B7F812F06FFD314978
:10061000A0602C31086010BD10B544F61F64532152
:10062000204602F0B7FBA721204602F07EFCBDE881
:10063000104041A00FF00CBF2DE9F041002594B00F
:100640002C4603F017FA434E01460120C6F8B402C7
:1006500005E041A00FF0FCFE03F00CFA0146002972
:10066000F7D14448D0E91210090D41EA003142A007
:100670000FF0EEFE00200AF03FFE02200AF03CFEE2
:1006800008F02CF84348012243A1006809F04BF917
:100690008AE00000901700203C010020704D0020EF
:1006A00000000020980000209C000020A0000020F6
:1006B000A4000020A8000020AC000020B000002012
:1006C000B4000020B8000020BC000020C0000020C2
:1006D000C4000020181600200000C842252E3466F1
:1006E00009252E346609252E34660D0A0000000007
:1006F0004801002080E6C54700000020665AC83F38
:10070000000000000000F03F0000000080A1E54074
:1007100000000000241C00200080BB453333533A06
:100720001F851B41CDCCCC3D6666663F6891ED3C94
:10073000A6859916665AC83F70776D5F696E6974B1
:10074000207375636365737366756C2121212121A4
:10075000210D0A000080414253442043617264200D
:10076000496E6974204572726F723A2025642021A7
:100770000D0A0000A0190020534420202020202032
:100780002053697A653A202025642020204D420DAF
:100790000A0000004C580020303A0000E1A00FF0A1
:1007A00057FEC82007F0BEFE12AA11A9E3A008F068
:1007B0000BF80028F2D11198810AE1A00FF048FE51
:1007C0001298810AE5A00FF043FEEBA1684609F0FC
:1007D00042FC10B1E9A00FF03BFE4FF47A770DF127
:1007E0002D0809A9684609F07FFCB8B99DF82D00CD
:1007F000A0B12046641CB84210DA9DF82C00C00657
:10080000EFD42E2140460FF069FF0028E9D0E1A186
:100810000FF04FFF0028E4D16D1CE2E7684609F0B5
:100820005AFC2946DDA00FF013FE6A1CE0A1E44843
:100830000FF01AFEE34C0B22E149206809F097F80B
:10084000206809F0FCFA0020C6F8B402DC49DEA0FA
:100850000FF0FEFDC82007F065FEE0A00FF0F8FDE8
:10086000C82007F05FFE14B0BDE8F08110B504F0B9
:100870006BFB08B1E0A000E0E5A0BDE810400FF080
:10088000E7BD70B5002402F0C9F9E94EE94D6420D6
:1008900007F048FED6F8B40208B30020C6F8B40248
:1008A000D5F8B002E8B10020C5F8B002D5F8B4021E
:1008B000C8B10020C5F8B402641CA4B2142CE6D35D
:1008C0000120C6F8B402C5F8A8020020C5F8B0029D
:1008D000C5F8B402BDE87040D7A00FF0B9BD012043
:1008E000DCE70120E0E70120E4E78AB0FFF7C9FF79
:1008F00004F01BF8FFF7BAFFFFF79EFEFFF78CFE30
:1009000004F06BFC4FF4612004F02AFE4FF4164013
:1009100005F073FA01F094FCFFF74BFE00244FF052
:100920000C0809AD05948027CA49CDF808800694C3
:10093000CDE9074506262346AFF25D42CDE90061C9
:10094000CDE90374C4A1C7480EF07BF80594C649ED
:10095000CDF808800694CDE907450023AFF2D542D3
:10096000CDE90061BF48CDE90374C0A1C4300EF0E9
:1009700068F8059406943321CDE90745BD4A0096F1
:10098000CDE90121B8000023AFF2DB62CDE9030419
:10099000B9A1BC480EF055F80594BB49CDF80880C4
:1009A0000694CDE907450023AFF20372CDE900615B
:1009B000B448CDE90374B5A1C4300EF042F84FF449
:1009C0007A71042002F03CFB994D0024642007F06A
:1009D000A9FD0AF07BFE064602F045FB30460AF010
:1009E00079FE641C092CF1DB322007F09BFDD5F861
:1009F000B402A0B10020C5F8B402322007F092FD85
:100A0000D5F8B40268B10020C5F8B4020AF05EFE61
:100A1000044602F028FB20460AF05CFED5E70120E0
:100A2000E9E70120F0E78AB007F038FD4FF4A06055
:100A300005F004FE4FF4E13007F0A6FD09A80BF025
:100A40005CFE002009A905900690CDE907010C2263
:100A500080210292CDE903108F4B0520CDE90003E0
:100A60000023AFF279127F488CA1C4380DF0E9FF62
:100A700009AB00228CA18F480DF0CFFC8D4809AA4C
:100A80008DA128300CF047FF09A80BF08AFFFEE784
:100A90002DE9FC418CA00024D0E90010CDE9001024
:100AA0004FF4165007F070FD894D4FF40061284651
:100AB00005F0EDFEA914284605F0E9FE4FF4FA779B
:100AC000384607F02FFD834D6E462846315D07F00E
:100AD000F1FD641C062CF8DB384607F023FD0024EA
:100AE000C321284607F0E6FD641C032CF8DB3846DA
:100AF00007F018FD4FF4E13007F046FDBDE8FC813A
:100B000010B504F0F2FDC82173A004F031FEC82135
:100B100072A004F02DFE04F06BFEBDE8104004F05E
:100B2000A5BE000053442043617264204661746690
:100B300073204572726F72210D0A000030000000B0
:100B4000534420546F74616C2053697A653A2020B5
:100B500025642020204D420D0A000000534420202F
:100B6000467265652053697A653A20202564202005
:100B7000204D420D0A000000303A2F0053442066F9
:100B80005F6F70656E64697220213D2046525F4F31
:100B90004B0D0A002E74787400000000534420743A
:100BA00078745F636F756E74203D2025640D0A00B4
:100BB000303A2F746573745F25642E747874000066
:100BC000901700203C01002053442066696C656E3C
:100BD000616D65203D2025730D0A000073645F6917
:100BE0006E6974207375636365737366756C212118
:100BF000212121210D0A000053504C3036B3F5CA93
:100C0000BCBBAFCAA7B0DC210D0A0D0A0000000072
:100C100073706C30365F696E6974207375636365D9
:100C2000737366756C2121212121210D0A000000BA
:100C300000004142008041426C65645F696E6974E6
:100C4000207375636365737366756C21212121219F
:100C5000210D0A00F00700205461736B5F6865691D
:100C600067687400E0020020F00900205461736B93
:100C70005F736400F00B00205461736B5F617268F6
:100C80007300000068040020F01300205461736BAF
:100C90005F70696400000000F00500205461736B10
:100CA0005F696E6974000000675F73656D5F7364F0
:100CB00000000000F0150020675F6D757465785FB7
:100CC0007573617274000000C000003800400000BD
:100CD00000000240001001403430000036330000B4
:100CE0000CB50022544900920192086840F480300B
:100CF00008604FF4A043086800F4003001900098A9
:100D0000401C0090019810B900989842F3D10868EF
:100D1000800334D50120019047484030026842F0FA
:100D2000805202604548026842F4404202604248F4
:100D3000083002680260026842F400420260026801
:100D400042F4A0520260031F3D4A1A600A6842F052
:100D500080720A600A689201FCD53A4940F2057235
:100D60000A60016821F003010160016841F002019D
:100D700001600168C1F381010229FAD10CBD019221
:100D80000CBD314810B5016841F4700101602A487A
:100D9000016841F001010160274A00210832116019
:100DA00002682A4B1A400260031D294A1A60026831
:100DB00022F48022026020480C300160FFF790FF8F
:100DC00021494FF000608039086010BD70B51A4DA0
:100DD000083528681F4B204910F00C0004D05E1025
:100DE000042803D0082803D00B601BE00E6019E034
:100DF000114A121D1068C0F38054106800F03F00C3
:100E000014B1B6FBF0F001E0B3FBF0F01368126828
:100E1000C3F388135843C2F30142521C5200B0FB83
:100E2000F2F0086028680C4AC0F30310121D105C31
:100E30000A68C2400A6070BD00380240007000407D
:100E400008544007003C024088ED00E0FFFFF6FE3A
:100E5000103000240024F40060000020F6EE000AA8
:100E600010EE100A60EE200AB7EE081AFE49A1EB58
:100E7000600000EE100A60EE800A00EEC01A21EE5B
:100E8000000A704730B5F94CF94D2DED0A0BF0EE24
:100E9000402AF0EE411AF5EEC02AB0EE602A2DEDA0
:100EA000108BB6EE00CAF0EE00EAF1EE10FA83B055
:100EB00009D1B5EEC02AF1EE10FA04D1F5EEC01A50
:100EC000F1EE10FA7ED022EEA20A02EE020A01EE44
:100ED000A10AFFF7C3FF22EE80EA62EE00DA21EEFC
:100EE00080DA23EE030A03EEA30A04EE040AFFF7F6
:100EF000B5FF23EE009A63EE808A24EE008A94ED1B
:100F0000020AD4ED020A20EE202A8DED012A94ED8A
:100F1000020AD4ED030A94ED031A94ED052A60EE5B
:100F200020BA94ED020AD4ED040A20EE20BA94ED22
:100F3000020AD4ED050A60EE200A94ED030A60EE81
:100F4000011A94ED030A94ED041A3CEE61FA20EEC6
:100F5000010A94ED031A61EE02AA94ED041A94EDCD
:100F6000042A70EE60FA30EE200A61EE02CA94EDB7
:100F7000041A94ED052A20EE090A21EE02AA94ED46
:100F8000051A94ED052A61EE029A3CEE6C1A7FEE8A
:100F9000690A31EE692A8DED002A22EE091A3AEE2D
:100FA0008B2A08EEA00A7AEE6B0A08EEAF1A08EE5A
:100FB000200A08EE021A20EE2E0A21EE2E1A61EE09
:100FC000010A00E0C6E040EE000A10EE900A12F0BE
:100FD000C9FE41EC100B11F0E7FE51EC100B12F0C2
:100FE00085F83AEECB1A7AEE2B1A9DED012A7FEEA8
:100FF0006C3A61EE090A32EE4C2A00EE100A3BEE22
:101000002A4A48EEA10A32EE293A9DED002A6FEEF7
:10101000802A7BEE8A1A22EE002A48EE230A24EE6A
:10102000000A16A860EEAE0A00EEA30A40EEA12A5E
:1010300000EE812A6DEE830A68EE803A4DEE610A79
:101040006EEE211A48EE623A4DEEC11A70EEA30A16
:101050006DEE013A29EE221A4EEE433A28EE023A9C
:1010600008EEC21A09EE403A90EC038A31EE811A7A
:10107000D5ED001A33EE830A78EE211A61EE8C1A50
:10108000C5ED001AD5ED011A78EEA11A61EE8C1AA1
:10109000C5ED011AD5ED021A79EE211A61EE8C1A0E
:1010A000C5ED021AD4ED011AF5EEC01AF1EE10FAF0
:1010B00030DDD4ED061A94ED012A42EE201AC4ED7B
:1010C000061AD4ED071A94ED012A42EE001AC4ED77
:1010D000071AD4ED081A94ED012A42EE011AC4ED64
:1010E000081AD5ED001A94ED062A71EE821AC5EDA4
:1010F000001AD5ED011A94ED072A71EE821AC5ED9A
:10110000011AD5ED021A94ED082A71EE821AC5ED86
:10111000021A07E0DFED571AC4ED061AC4ED071AEC
:10112000C4ED081AD5ED001A94ED002A42EE201AFB
:10113000C5ED001AD5ED010AD4ED001A41EE800A82
:10114000C5ED010A95ED020AD4ED000A00EE810A10
:1011500085ED020AD4ED033AD4ED052A95ED000A97
:10116000F0EE631A94ED043AF0EE620A21EEC00A42
:10117000D5ED012AB0EE431A94ED024A02EEC10AFF
:10118000D5ED022AB0EE442AF0EE613AB0EE424AC2
:10119000B0EE413A02EEE00AD5ED022A95ED027A70
:1011A00020EE0C6A95ED000A20EE020A02EE810A9A
:1011B000D5ED012A02EEE00AD5ED022A60EE0C5AC6
:1011C00095ED010A20EE020A02EEE10AD5ED002AB1
:1011D00002EEA00AD5ED012A20EE0C5A95ED020A86
:1011E00020EE020A02EEA10AD5ED002A02EEC10AA3
:1011F000D5ED002A60EE0C4A9FED1F0A06EE004A6C
:1012000045EE803A70EE622A05EE003A30EE477AFB
:1012100064EE006A42EEA36AD5ED012A70EE622AFE
:1012200042EE836AF0EE602A44EE802A47EE226A9C
:1012300095ED027A37EE007A66EE8C7AD5ED006A8B
:1012400076EE806A64EE266A43EE806A47EE036AB1
:1012500095ED017A30EE477A47EE226A26EE8C7AD7
:10126000D5ED016A0AE00000865A375F740000205D
:10127000A417002000000000CDCC4C3C76EE806A24
:10128000D5ED029A95ED02AAD5ED02BA64EE266A72
:1012900070EE699A30EE4AAA70EE6BBA49EEA36A14
:1012A000D5ED009A79EE809A43EE006A49EEA26A83
:1012B000D5ED029A79EE809A66EE8C6A24EE294A80
:1012C000D5ED019A79EE809A09EEA34AD5ED003A60
:1012D00070EE633A03EE834AF0EE613AB0EE413AC3
:1012E00047EE003A06EE803A02EE804AD5ED002A3B
:1012F00070EE622A24EE0CBAB0EE424A07EE804A43
:1013000064EE009A42EEA39AD5ED012A70EE622AAD
:1013100042EE839AF0EE602A4BEE002A4AEE229AC1
:1013200095ED02AA3AEE00AA69EE8CAAD5ED009AD4
:1013300079EE809A64EE299A43EE809A4AEE039AF7
:1013400095ED01AA30EE4AAA4AEE229A29EE8CAA1D
:10135000D5ED019A79EE809A64EE299A4BEEA39A24
:10136000D5ED00BA7BEE80BA43EE009A4BEEA29A1E
:10137000D5ED02BA7BEE80BA69EE8C9A24EE2B4A48
:10138000D5ED01BA7BEE80BA0BEEA34AD5ED003A5B
:1013900070EE633A03EE834A02EE804A64EE0CBAC2
:1013A000B0EE424A9FEDFE0AF0EE613AD5ED002A1A
:1013B0000AEE804A4AEE003A70EE622AB0EE413AF6
:1013C00095ED02DA09EE803A64EE00CA30EE4DDAAD
:1013D00095ED02EA07EEAE6A42EEA3CAD5ED012A08
:1013E00030EE4EEA70EE622A0AEEAE6A42EE83CA30
:1013F000F0EE602A4BEE802A4DEE22CA95ED02DA1D
:101400003DEE00DA6CEE8CDAD5ED00CA7CEE80CAD7
:1014100064EE2CCA43EE80CA4DEE03CA95ED01DAA4
:1014200030EE4DDA4DEE22CA2CEE8CDAD5ED01CA43
:101430007CEE80CA64EE2CCA4EEE23CA95ED00EA1B
:101440003EEE00EA43EE00CA4EEE22CA95ED02EAF5
:101450003EEE00EA6CEE8CCA24EE0E4A95ED01EAEF
:101460003EEE00EA0EEE234AD5ED003A70EE633A06
:1014700003EE834A02EE804A76EE2D2A24EE0C0A11
:101480009FEDC86A47EE2E5A06EEAE5A02EE862A45
:101490004BEE2E4A4AEE2E5A84ED022A09EEAE5A3F
:1014A0004BEEAE4A35EE8D2A34EE800A42EE061A35
:1014B00040EE060AC4ED031A75EE2C1A01EE861AE8
:1014C00084ED041AC4ED050A85ED008AC5ED018A94
:1014D00085ED029A94ED020AD4ED020A94ED031A06
:1014E00020EE200AD4ED030A00EE810AD4ED040AAE
:1014F00094ED041A00EE810AD4ED050A94ED051A64
:1015000000EE810AFFF7AAFCD4ED020AB8EE00AAA9
:1015100060EE800AC4ED020AD4ED030A60EE800A90
:10152000C4ED030AD4ED040A60EE800AC4ED040A97
:10153000D4ED050A20EE800A84ED050A94ED030A35
:10154000D4ED050A94ED041A20EE0A0A20EE200AD2
:10155000D4ED020A60EEAE0A00EE810A10EE100A27
:1015600012F000FC41EC100B10F0DAF99FED8E8BBD
:1015700051EC100B53EC182B12F0FEF89FED8C9BE6
:1015800053EC192B11F0A0FE11F0B0FD00EE100A83
:1015900084ED0A0A94ED030AD4ED030A94ED041ACB
:1015A00020EE0A0A20EE200AD4ED040A60EEAE0A0C
:1015B00000EEC10AF7EE000A30EE200A10EE100A23
:1015C00012F0D0FB94ED040AD4ED050A94ED031A51
:1015D00041EC1A0B20EE200AD4ED020A00EE810A3B
:1015E00020EE2E0A10EE100A12F0BCFB41EC100B9C
:1015F000B0EE4A1AF0EE6A1A10F0AEFC53EC182B5B
:1016000051EC100B12F0B8F853EC192B11F05CFEF2
:1016100011F06CFD00EE100A84ED090A94ED020A47
:10162000D4ED020A94ED031A20EE200AD4ED030A49
:1016300000EE810AD4ED040A94ED041A00EEC10A0A
:10164000D4ED050A94ED051A00EEC10A10EE100A59
:1016500012F088FB94ED030AD4ED040A94ED051A08
:1016600041EC1A0B20EE200AD4ED020A00EE810AAA
:1016700020EE2E0A10EE100A12F074FB41EC100B53
:10168000B0EE4A1AF0EE6A1A10F066FC53EC182B12
:1016900051EC100B12F070F853EC192B11F014FEF2
:1016A00011F024FD00EE100A84ED0B0A94ED020AFD
:1016B000D4ED020A94ED031A20EE200AD4ED030AB9
:1016C00000EE810AD4ED040A94ED041A00EEC10A7A
:1016D000D4ED050A94ED051A00EEC10A84ED0C0A5A
:1016E00094ED030AD4ED040A94ED051A20EE200AC5
:1016F000D4ED020A00EEC10A20EE2E0A84ED0D0A96
:1017000094ED030AD4ED050A94ED041A20EE200AA4
:10171000D4ED020A00EE810A20EE2E0A84ED0E0AB4
:1017200094ED030AD4ED040A94ED051A20EE200A84
:10173000D4ED020A00EE810A20EE2E0A84ED0F0A93
:1017400094ED020AD4ED020A94ED031A20EE200A69
:10175000D4ED030A00EEC10AD4ED040A94ED041A94
:1017600000EE810AD4ED050A94ED051A00EEC10AD7
:1017700084ED100A94ED040AD4ED050A94ED031AE1
:1017800020EE200AD4ED020A00EEC10A20EE2E0A55
:1017900084ED110A94ED030AD4ED050A0CE0000073
:1017A000CDCCCC3C8988883B00000000008066409E
:1017B00000000060FB21094020EE200AD4ED020A5F
:1017C00094ED041A00EEC10A20EE2E0A84ED120AEE
:1017D00094ED040AD4ED050A94ED031A20EE200AD4
:1017E000D4ED020A00EE810A20EE2E0A84ED130ADF
:1017F00094ED020AD4ED020A94ED031A20EE200AB9
:10180000D4ED030A00EEC10AD4ED040A94ED041AE3
:1018100000EEC10AD4ED050A94ED051A00EE810A26
:1018200084ED140A03B0BDEC108B0AB030BD10B5C6
:10183000B0EE413A2DED0E8BF0EE603AF0EE404AFC
:10184000DFEDFE5AF5EEC04AB0EE008AB6EE004A71
:10185000F1EE10FAFA4CFB4A09D1F5EEC03AF1EE7E
:1018600010FA04D1B5EEC03AF1EE10FA7DD024EEB4
:10187000A40A03EEA30A03EE030AFFF7EFFA64EEED
:10188000804A63EE803A23EE001A94ED030AD4ED09
:10189000050A94ED043A94ED055A20EE200AD4EDA1
:1018A000020A94ED036A00EEC30AD4ED030A20EEA7
:1018B000083A94ED020A20EE200AD4ED040A00EE64
:1018C000850AD4ED020A20EE085A94ED020A20EEB1
:1018D000200AD4ED030A00EEC60AD4ED040A94ED02
:1018E000046A00EEC60AD4ED050A94ED056A00EE1E
:1018F000860A63EE800A41EE450A21EE031A04EEE1
:10190000C01A24EE850A03EEC30A92ED003A31EEC6
:10191000833A23EE043A82ED003A92ED013A32EE38
:10192000033A23EE043A82ED013A92ED023A32EEA6
:10193000833A23EE043A82ED023A94ED013AB5EE91
:10194000C03AF1EE10FA32DD94ED063AD4ED013AE8
:1019500003EEA03A84ED063A94ED073AD4ED013A4D
:1019600003EE813A84ED073A00E03EE094ED083A58
:10197000D4ED013A03EE803A84ED083A92ED003A54
:10198000D4ED063A33EE233A82ED003A92ED013A75
:10199000D4ED073A33EE233A82ED013A92ED023A62
:1019A000D4ED083A33EE233A82ED023A05E0C4ED75
:1019B000065AC4ED075AC4ED085A92ED003AD4ED28
:1019C000003A03EEA03A82ED003AD2ED010A94ED1E
:1019D000003A43EE010AC2ED010AD2ED020A94ED8B
:1019E000001A41EE000AC2ED020A94ED036AD4ED3A
:1019F000024A92ED000AB0EE463A94ED045AF0EE37
:101A0000643A23EE400AD2ED014AB0EE451AD4ED15
:101A1000055A04EEC10AD2ED024AF0EE650A04EE60
:101A2000E00AD2ED024A60EE048A92ED000A20EE4E
:101A3000230A04EE810AD2ED014A04EEE00AD2ED57
:101A4000024A60EE047A92ED010A20EE230A04EEC7
:101A5000C30AD2ED004A04EEA00AD2ED014A20EEFC
:101A6000047A92ED020A20EE230A04EE830AD2EDF4
:101A7000004A04EEC10AF0EE634A60EE046A9FED8C
:101A8000720AB0EE436A92ED005A48EE804A07EEC1
:101A9000806A30EE455AD2ED015AD2ED029AD2ED6B
:101AA00002AA24EE809A70EE655A70EE699A70EE82
:101AB0006AAA05EE069AB0EE415A07EE005A05EE04
:101AC000859AF0EE605A46EE805A09EEA59AD2ED5C
:101AD000029A79EE809A29EE04AA92ED009A39EEE4
:101AE000009A24EE899A06EE009A09EE859AD2EDC4
:101AF000019A70EE699A09EEA59A69EE049A92ED40
:101B0000019A39EE009A24EE899A0AEE869AD2ED6D
:101B100000AA05EE009A7AEE80AA92ED02BAD2ED02
:101B200002CA30EE4BBA0AEEA59AD2ED02AA70EEC6
:101B30006CCA7AEE80AA29EE049A64EEAA4AD2ED23
:101B400001AA7AEE80AA4AEE864A92ED006A30EE49
:101B5000466A46EE054AB0EE436A92ED005A09EE37
:101B6000806A30EE455A45EE804AD2ED015A70EE59
:101B7000655A24EE84CAF0EE634A4AEE004A64EEE7
:101B800080AA45EE06AAB0EE415A09EE005A45EE8B
:101B900085AAF0EE605A4CEE005A4BEE25AA92ED63
:101BA00002BA3BEE00BA6AEE84BAD2ED00AA7AEE2F
:101BB00080AA64EEAAAA46EE00AA4BEE05AA92ED10
:101BC00001BA30EE4BBA4BEE25AA2AEE84BAD2ED1A
:101BD00001AA7AEE80AA64EEAAAA4CEE86AAD2EDF9
:101BE00000CA7CEE80CA45EE00AA4CEEA5AAD2ED52
:101BF00002CA7CEE80CA6AEE84AA64EEAC4AD2EDD8
:101C000001CA7CEE80CA4CEE864A92ED006A30EE44
:101C1000466A46EE054AB0EE436A92ED005A45EE3A
:101C2000804A9FED0A0A0BEE006A64EE84CAF0EE69
:101C3000634A4BEE804A24EE80DA09E0000000009F
:101C400074000020A4170020CDCC4C3CCDCCCC3C63
:101C500030EE455AD2ED015AD2ED02DAD2ED02EA67
:101C600005EE06DAB0EE415A70EE655A0AEE805A79
:101C700070EE6DDA70EE6EEA4AEE088A05EE85DAED
:101C8000F0EE605A4CEE805A4BEE888A0DEEA5DAE3
:101C9000D2ED02DA7DEE80DA2DEE04EA92ED00DA82
:101CA0003DEE00DA24EE8DDA06EE00DA0DEE85DA8E
:101CB000D2ED01DA70EE6DDA0DEEA5DA6DEE04DA32
:101CC00092ED01DA3DEE00DA24EE8DDA0EEE86DAE0
:101CD000D2ED00EA7EEE80EA05EE00DA0EEEA5DA3D
:101CE000D2ED02EA7EEE80EA2DEE04DA64EEAE4A30
:101CF000D2ED01EA7EEE80EA4EEE864A92ED006A6F
:101D000030EE466A46EE054A45EE804A24EE840AE5
:101D100078EE8E4A9FEDFE4A49EE887A09EE087AFF
:101D200044EE843A4CEE086A4BEE087AC4ED023A6F
:101D30000AEE887A4CEE886A77EEAD3A36EE800A83
:101D400003EE843A40EE040A84ED033A37EE0D3A8E
:101D500003EE041A84ED041AC4ED050AC2ED001A5C
:101D600082ED012AC2ED022A94ED020AD4ED020AA4
:101D700094ED031A20EE200AD4ED030A00EE810A46
:101D8000D4ED040A94ED041A00EE810AD4ED050A9C
:101D900094ED051A00EE810AFFF760F8D4ED020A0F
:101DA000F8EE008A60EE800AC4ED020AD4ED030A60
:101DB00060EE800AC4ED030AD4ED040A60EE800AE6
:101DC000C4ED040AD4ED050A20EE800A84ED050A6C
:101DD00094ED030AD4ED050A94ED041A20EE280AC6
:101DE00020EE200AD4ED020A60EE880A00EE810A95
:101DF00010EE100A11F0B6FF41EC100B0FF090FD41
:101E00009FEDC49B51EC100B53EC192B11F0B4FC5B
:101E10009FEDC2AB53EC1A2B11F056FA11F066F994
:101E200000EE100A84ED0A0A94ED030AD4ED030AC9
:101E300094ED041A20EE280A20EE200AD4ED040ABC
:101E400060EE880A00EEC10AF7EE000A30EE200AC2
:101E500010EE100A11F086FF94ED040AD4ED050A85
:101E600094ED031A41EC1B0B20EE200AD4ED020A7C
:101E700000EE810A20EE080A10EE100A11F072FF3F
:101E800041EC100BB0EE4B1AF0EE6B1A10F064F848
:101E900053EC192B51EC100B11F06EFC53EC1A2B78
:101EA00011F012FA11F022F900EE100A84ED090A7D
:101EB00094ED020AD4ED020A94ED031A20EE200AF2
:101EC000D4ED030A00EE810AD4ED040A94ED041A5D
:101ED00000EEC10AD4ED050A94ED051A00EEC10A20
:101EE00010EE100A11F03EFF94ED030AD4ED040A3F
:101EF00094ED051A41EC1B0B20EE200AD4ED020AEA
:101F000000EE810A20EE080A10EE100A11F02AFFF6
:101F100041EC100BB0EE4B1AF0EE6B1A10F01CF8FF
:101F200053EC192B51EC100B11F026FC53EC1A2B2F
:101F300011F0CAF911F0DAF800EE100A84ED0B0A7C
:101F400094ED020AD4ED020A94ED031A20EE200A61
:101F5000D4ED030A00EE810AD4ED040A94ED041ACC
:101F600000EEC10AD4ED050A94ED051A00EEC10A8F
:101F700084ED0C0A94ED030AD4ED040A94ED051ADD
:101F800020EE200AD4ED020A00EEC10A20EE080A73
:101F900084ED0D0A94ED030AD4ED050A94ED041ABC
:101FA00020EE200AD4ED020A00EE810A20EE080A93
:101FB00084ED0E0A94ED030AD4ED040A94ED051A9B
:101FC00020EE200AD4ED020A00EE810A20EE080A73
:101FD00084ED0F0A94ED020AD4ED020A94ED031A7F
:101FE00020EE200AD4ED030A00EEC10AD4ED040A63
:101FF00094ED041A00EE810AD4ED050A94ED051A59
:1020000000EEC10A84ED100A94ED040AD4ED050A2D
:1020100094ED031A20EE200AD4ED020A00EEC10A64
:1020200020EE080A84ED110A94ED030AD4ED050AA6
:1020300094ED041A20EE200AD4ED020A00EEC10A43
:1020400020EE080A84ED120A94ED040AD4ED050A84
:1020500094ED031A20EE200AD4ED020A00EE810A64
:1020600020EE080A84ED130A94ED020AD4ED020A68
:1020700094ED031A20EE200AD4ED030A00EEC10A03
:10208000D4ED040A94ED041A00EEC10AD4ED050A59
:1020900094ED051A00EE810A84ED140ABDEC0E8B56
:1020A00010BD30EE600A1F4980ED030A90ED061A5C
:1020B00070EE411AC0ED051A097841B390ED071A88
:1020C000B4EEE01AF1EE10FA06D3B1EE411AB4EE16
:1020D000E01AF1EE10FA03DD002180F824102AE066
:1020E000012180F82410D0ED040A30EE801A80ED32
:1020F000041AD0ED080AB4EEE01AF1EE10FA01DD90
:10210000C0ED040A90ED041AF1EE600A0CE037E02D
:102110008988883B00000000008066400000006065
:10212000FB210940E5000020B4EEE01AF1EE10FAC0
:1021300001D2C0ED040AD0ED000A60EE800AC0EDC5
:102140000A0A90ED021A21EE211A80ED0C1AD0ED48
:10215000011A90ED042A90F8241021EE822A01EE53
:10216000901AF8EE611A62EE211AC0ED0B1A70EEA9
:10217000A10A70EE810AC0ED0D0A80ED060A7047D3
:10218000DFEDFE0AD5E730EE600A80ED030A90ED40
:10219000061A70EE411AC0ED051A90ED071AB4EE5A
:1021A000E01AF1EE10FA06D3B1EE411AB4EEE01ADD
:1021B000F1EE10FA03DD002180F824101CE001216B
:1021C00080F82410D0ED040A30EE801A80ED041A55
:1021D000D0ED080AB4EEE01AF1EE10FA01DDC0ED20
:1021E000040A90ED041AF1EE600AB4EEE01AF1EE82
:1021F00010FA01D2C0ED040AD0ED000AC9B260EEB7
:10220000800AC0ED0A0A90ED021A21EE211A80ED33
:102210000C1AD0ED011A90ED042A21EE822A01EE6B
:10222000901AF8EE611A62EE211AC0ED0B1A70EEE8
:10223000A10A70EE810AC0ED0D0A80ED060A704712
:10224000CF49F0EE000AC1ED000A9FEDCE0A002052
:1022500081ED010A81F82400DFEDCB1AC1ED071AE8
:102260009FEDCA1A81ED081AA831C1ED000A81ED6F
:10227000010A81F824009FEDC62A81ED072A81ED2D
:10228000081A7039C1ED000A81ED010A81F82400B5
:10229000C1ED071A81ED081AA831C1ED000A81EDE0
:1022A000010A81F8240081ED072A81ED081A7039AE
:1022B000C1ED000A81ED010A81F82400C1ED071A81
:1022C00081ED081AA831C1ED000A81ED010A81F8FB
:1022D000240081ED072A81ED081A3831F7EE000A53
:1022E000C1ED000A81ED010A9FEDA40A81ED020A09
:1022F0009FEDA80A81ED070A9FEDA70A81ED080A64
:1023000081F824007047F7EE001AC0ED061A80ED40
:10231000070A9FED9A3AB6EE002A80ED083A20EEC1
:10232000022AC0ED091A002122EE002A80ED0A2AB5
:1023300080ED0B0A62EE202A8160C160016141617B
:1023400022EE822AC0ED021AC0ED051A60EE200AC4
:1023500080ED0C2A22EE802A20EE800A80ED0D2AE4
:1023600080ED0E2A80ED0F0AC0ED101A80ED113AB3
:1023700080ED121A80ED003A80ED013A70477FB58A
:1023800090ED062AD0ED000AD0ED071AD0ED012A13
:1023900022EE203A90ED0A1A00226E4601EEA23A91
:1023A00001EE003A90ED081A61EE203AD0ED090AEC
:1023B00040EEA23AD0ED0B2A42EE803A80EC023A8F
:1023C00090ED020AD0ED044A90ED033A62EE002A45
:1023D00021EE000A62EE033A90ED054A41EEA42A8E
:1023E00021EE033A00EEA40A41EE843A00EE843A6C
:1023F00022EE824A62EE812A20EE022A20EE010AB3
:1024000003EEA14A43EEA02A03EE212A03EE200A9E
:102410008DED004ACDED012A8DED022A8DED030AE6
:10242000002106EBC20500EBC20405EB810393ED2E
:10243000000A04EB8103491CD3ED0C0A022930EE9B
:10244000200A83ED020AF0DB521C022AE8DB7FBD82
:1024500090ED101AD0ED005AD0ED110A90ED015A0E
:1024600061EE251AD0ED023AD0ED032A90ED042A50
:1024700040EE851A22EE016A30EE614A23EE810AAF
:1024800072EE821A20EE013A61EE811A02EEA00A83
:1024900001EEA03AD0ED051A61EEA04A01EEA06A65
:1024A00004EEA03AD0ED124A73EE244A80EE243AAC
:1024B00086EE240A43EE045AC0ED005A00EE045A98
:1024C000B7EE004AF0EE444A00EE604A43EE414A5D
:1024D00080ED015A20EE833A24EEA35A64EEA24A1C
:1024E00003EE425A43EE614A20EE413A20EE410AA1
:1024F00080ED025A23EE233A20EE220AC0ED034A71
:1025000004EE023A04EE210A80ED043A80ED050A59
:102510007047D0ED000A90ED041A70EE810AC0ED0C
:10252000010A90ED051A70EE811A80EEA11A80ED75
:10253000031AD0ED021A30EE612AB0EE610AF7EE0E
:10254000001A01EE020A31EEC11A61EE200A80ED96
:10255000020AC0ED000A70477FB50D46044601210E
:10256000084604F050FB01940024ADF80050ADF88B
:102570000840ADF80240694610E00000000000008D
:10258000B0170020CDCC4C3D00000C420000484369
:102590000000164300007A430000FA434FF08045E4
:1025A000284604F061FE01224121284605F0E5F9A4
:1025B0000121284604F0D0FE1C208DF80C008DF877
:1025C0000D4003208DF80E0001208DF80F0003A8A8
:1025D00004F039F87FBD10B50AF00AF901218C0723
:1025E000204605F0DEF90121204605F0E6F9BDE8B8
:1025F00010400AF008B90000FFB599B0AA238DF881
:102600000030FF238DF8013001238DF802300D23B7
:102610008DF8033024989DF864308DF804309DF8CF
:1026200065308DF805309DF868308DF806309DF8DE
:1026300069308DF807309DF86C308DF808309DF8C2
:102640006D308DF809309DF870308DF80A309DF8A6
:1026500071308DF80B309DF888308DF80C309DF876
:1026600089308DF80D309DF88C3000218DF80E30BA
:102670009DF88D308DF8100011250A466E468DF8B4
:102680000F300020335C401C1944C9B20A44D2B256
:10269000A842F7DB71556D1C00247255FB4F6D1C71
:1026A00004E0315D384606F005F8641CAC42F8DB06
:1026B0001DB0F0BDFFB599B0AA25DDE923048DF862
:1026C0000050FF258DF8015002258DF802500E258F
:1026D0008DF803509DF864508DF804509DF86550B6
:1026E0008DF805509DF868508DF806509DF869509A
:1026F0008DF807509DF86C508DF808509DF86D507E
:102700008DF809508DF80A301D0A8DF80B501D0CFC
:102710008DF80C501B0E8DF80D309DF888308DF81B
:102720000E309DF8893000218DF8100012250A46E0
:102730006E468DF80F308DF811400020335C401C40
:102740001944C9B20A44D2B2A842F7DB71556D1CD4
:1027500000247255CD4F6D1C04E0315D384605F004
:10276000A9FF641CAC42F8DBA2E7FFB599B0AA2030
:102770008DF80000FF208DF8010003208DF8020085
:1027800007208DF803009DF864008DF804009DF883
:1027900065008DF805009DF868008DF806009DF82D
:1027A00069008DF807009DF86C008DF808009DF811
:1027B0006D0000218DF809000B250A466E468DF844
:1027C0000A300020335C401C1944C9B20A44D2B21A
:1027D000A842F7DB71556D1C00247255AB4F6D1C80
:1027E00004E0315D384605F065FF641CAC42F8DB5F
:1027F0005EE7FFB599B0AA238DF80030FF238DF86E
:10280000013004238DF8023009238DF803309DF840
:1028100064308DF804309DF865308DF805309DF8F2
:1028200068308DF806309DF869308DF807309DF8D6
:102830006C308DF808309DF86D308DF809309DF8BA
:1028400070308DF80A309DF87130002122988DF893
:102850000C000D250A466E468DF80B300020335CC7
:10286000401C1944C9B20A44D2B2A842F7DB7155E0
:102870006D1C00247255854F6D1C04E0315D384697
:1028800005F018FF641CAC42F8DB11E7F0B599B015
:10289000AA258DF80050FF258DF8015005258DF8EB
:1028A000025009258DF803508DF80400050A8DF8B3
:1028B0000550050C8DF80650000E8DF807008DF8B8
:1028C0000810080A8DF80900080C8DF80A0000238A
:1028D000080E8DF80B000D251C466E468DF80C2059
:1028E0000020315C401C1944CBB2E118CCB2A842A4
:1028F000F7DB73556D1C654F745500246D1C04E0A7
:10290000315D384605F0D6FE641CAC42F8DB19B0E8
:10291000F0BDF7B59AB0AA208DF80000FF208DF821
:10292000010007208DF8020006208DF803009DF8B5
:1029300068008DF804009DF869008DF805009DF889
:102940006C008DF806009DF86D008DF807009DF86D
:1029500070008DF8080000219DF871008DF80900C5
:102960000A250A466E460020335C401C1944C9B251
:102970000A44D2B2A842F7DB71556D1C002472558F
:10298000424F6D1C04E0315D384605F093FE641C37
:10299000AC42F8DB8CE6F0B599B0AA248DF8004083
:1029A000FF248DF8014008248DF802408DF8034083
:1029B0008DF80400040A8DF80540040C8DF80640DB
:1029C000000E8DF807008DF80810080A8DF8090030
:1029D000080C8DF80A000022080E8DF80B000C255B
:1029E00013466E460020315C401C1144CAB299184F
:1029F000CBB2A842F7DB72556D1C00247355234FF0
:102A00006D1C04E0315D384605F054FE641CAC4298
:102A1000F8DB7CE7F3B599B0AA208DF80000FF2021
:102A20008DF801000D208DF8020004208DF80300C0
:102A30009DF864008DF804009DF865008DF8050090
:102A40009DF868008DF8060000219DF869008DF85A
:102A5000070008250A466E460020335C401C1944D6
:102A6000C9B20A44D2B2A842F7DB71556D1C0024EA
:102A70007255064F6D1C04E0315D384605F01AFEB4
:102A8000641CAC42F8DB1BB0F0BD0000001001403C
:102A90002DE9F0479AB026AC229D94E800168DF8F7
:102AA00004008DF805108DF80620100A8DF8070037
:102AB000100C8DF80800100E8DF809008DF80A3002
:102AC000180A8DF80B00180C8DF80C00180E8DF8F4
:102AD0000D004FF0AA088DF800808DF80E50280ADE
:102AE0004FF0FF088DF80F008DF80180280C4FF093
:102AF00030088DF810008DF80280280E4FF017086E
:102B00008DF803808DF811009DF88C008DF812006F
:102B10009DF88D008DF813009DF890008DF814003D
:102B20009DF891008DF815009DF894008DF8160021
:102B300000249DF895008DF818908DF817008DF8F9
:102B400019A01B2527466E468DF81AC00020315C5F
:102B5000401C2144CCB23919CFB2A842F7DB7455DE
:102B60006D1C002477552C4F6D1C04E0315D3846F8
:102B700005F0A0FD641CAC42F8DB1AB0BDE8F0879C
:102B8000F0B599B0AA258DF80050FF258DF80150B9
:102B900032258DF802500C258DF803508DF8040075
:102BA000050A8DF80550050C8DF80650000E8DF8BD
:102BB00007008DF80810080A8DF80900080C8DF838
:102BC0000A00080E8DF80B008DF80C20100A8DF805
:102BD0000D00100C8DF80E000023100E8DF80F0064
:102BE00010251C466E460020315C401C1944CBB2B7
:102BF000E118CCB2A842F7DB73556D1C064F745533
:102C000000246D1C04E0315D384605F053FD641C62
:102C1000AC42F8DB7BE60000001001402DE9FC41EE
:102C200001210D2003F0D1FF01208DF804000025C3
:102C30008DF8065003218DF80510DFF844814FF41C
:102C400000548DF8070000946946404603F0BAFD31
:102C500002204C4E00906946304603F0B3FD4FF41D
:102C60005050494F00906946384603F0ABFDA01024
:102C700000908DF804506946384603F0A3FD2146C4
:102C8000404603F004FE0221304603F000FEE1104E
:102C9000384603F0FCFD6110384603F0F8FD21468C
:102CA000384603F0F4FDBDE8FC8170B5374C384D73
:102CB000012108B1217001E0207810B1D5F82C0273
:102CC00020B1D5F82C0201280AD00AE00A2005F02C
:102CD00029FC00202070D5F82C0210B9012070BD0D
:102CE0002170002070BD3EB5FFF798FF01218803D9
:102CF00003F093FF0B21032004F050F84FF4006021
:102D0000009000208DF804000C208DF805000124AF
:102D10008DF80640684605F0A5F828208DF80800D3
:102D20008DF8094002208DF80A008DF80B4002A8AA
:102D300003F089FC3EBD10B509F05AFD4FF4006464
:102D4000204605F0DFF890B10020FFF7AEFF58B144
:102D50000F4AD2F8B00270B10021C2F8B0120B488D
:102D6000416851B100214160204605F0D4F8BDE82A
:102D7000104009F048BD0121EFE70121F3E7000011
:102D80000008024000000240000C0240C800002081
:102D9000008041422DE9F0410D4680468AB0012174
:102DA000022003F030FF0121022003F00EFF9F4FAD
:102DB00002220021384603F079FD02220121384623
:102DC00003F074FD02220421384603F06FFD022255
:102DD0000521384603F06AFD3320059002208DF866
:102DE000180003208DF8190000248DF81A400126E0
:102DF0008DF81B6005A9384603F0E4FCADF81C50C3
:102E00008B4DCDF82080ADF81E40ADF8244007A9C9
:102E1000284604F029FA6020ADF80000ADF8026001
:102E2000ADF80C406946284604F0A0FA082128466F
:102E300004F0DDFB6946284604F0C4FA0821284660
:102E400004F0DBFB6946284604F0F8FA082128461E
:102E500004F0DDFB6946284604F02AFB08212846D9
:102E600004F0DBFB0121284604F05CFA012128462E
:102E700004F072FA0AB0BDE8F0812DE9F0410D4688
:102E800080468AB00121042003F0BDFE012102200A
:102E900003F09BFE654F02220821384603F006FD31
:102EA00002220921384603F001FD4FF440700590DD
:102EB00002208DF8180003208DF8190000248DF8E9
:102EC0001A4001268DF81B6005A9384603F07AFCEC
:102ED000ADF81C50574DCDF82080ADF81E40ADF830
:102EE000244007A9284604F0BFF96020ADF800008F
:102EF000ADF80260ADF80C406946284604F09EFA31
:102F00000821284604F083FB6946284604F0D0FADD
:102F10000821284604F081FB0121284604F002FA2A
:102F20000121284604F018FAA4E72DE9F0410D46E6
:102F3000804601218AB0084603F06FFE012110206F
:102F400003F043FE3C4F01220921384603F0AEFC5A
:102F500001220B21384603F0A9FC01220D2138463D
:102F600003F0A4FC01220E21384603F09FFC4FF42D
:102F7000D440059002208DF8180003208DF8190028
:102F800000248DF81A4001268DF81B6005A93846EB
:102F900003F018FCADF81C50284DCDF82080ADF89A
:102FA0001E40ADF8244007A9284604F05DF96020D2
:102FB000ADF800000420ADF804008001ADF8100069
:102FC000ADF80C40ADF80260ADF80E40ADF812401F
:102FD0006946284604F0CAF90821284604F007FB90
:102FE0006946284604F0EEF90821284604F005FB5E
:102FF0006946284604F022FA0821284604F007FB17
:103000006946284604F054FA0821284604F005FBD6
:103010000121284604F086F90121284604F09CF994
:103020000121284604F08AFC24E700000004024045
:103030000004004000080040001002400000014071
:1030400070B504460D4645F2555004F06DFF20461C
:1030500004F06DFF284604F06DFF04F06EFFBDE83C
:10306000704004F06FBF04F068BF000010B5E44C7E
:1030700094F8560030B1012806D002281ED003284B
:1030800005D11DE0DFA000E0E4A00DF0E1F914F8A7
:103090002C1FE8A00DF0DCF9218DEDA00DF0D8F982
:1030A000D4E90710090D41EA0031EDA00DF0D0F987
:1030B000616ABDE81040F0A00DF0CAB9F4A0E4E7E1
:1030C000F9A0E2E7FE4900200860091D0860091D1B
:1030D0000860091D0860FA4924310860091D08606C
:1030E000091D0860F64AF74938321160111D086061
:1030F00070470021012803D010B1262108467047EF
:10310000F14A5070FAE7EE4A121D116821F0FF01F2
:1031100001431160704710B50446E9483430016836
:1031200011F0450FFBD0042004F0D7FF20B104209C
:1031300004F0DCFF032010BD012004F0CEFF20B11D
:10314000012004F0D3FF012010BDDD4810300068DD
:10315000A04201D0102010BD40F2FF5004F0C6FF85
:10316000D7481430006800F0080010BD2DE9FC5F5E
:10317000A34F0024503F00944FF4806801944025F1
:10318000C7F81080C7E902540E464FF0080B102113
:10319000C7E900B1A146384604F01AFF1020FFF736
:1031A000BAFF002855D1C848AA464D4600890004F8
:1031B00038603720C7E9010AC7E90398384604F0A8
:1031C00007FF3720FFF7A7FF002842D1411E07F174
:1031D0001400C0E9001B302181600221C0E9031501
:1031E0000121416104F01AFF3320C7F808A0C7E9A4
:1031F0000050C7E90358384604F0EAFE3320FFF7D1
:103200008AFF050025D1DFF8B882DFF8B4924FF4C9
:10321000001B6F4608F1800809F1340940F22A6A60
:10322000D9F8000010EA0A0F0BD1584604F055FFF8
:103230000028F5D0D8F8000047F82400641C022CC0
:10324000EED3082004F049FF28B1082004F04EFF17
:103250000420BDE8FC9F022004F03FFF20B10220C3
:1032600004F044FF0220F4E7202004F036FF20B1F0
:10327000202004F03BFF0620EBE74FF400742046CB
:1032800004F02BFF20B1204604F030FF0720E0E7D8
:1032900040F2FF5004F02AFF009800BA70600198D5
:1032A00000BA30602846D4E72DE9FC41002600969C
:1032B0003546019600B1022581481430006880012E
:1032C00002D50E20BDE8FC817F4C6946208980B282
:1032D000FFF74CFF0028F5D10198400323D5208942
:1032E000474C0004503C4FF0400820603720C4E9B0
:1032F00001084FF480672046C4E9036704F068FEC4
:103300003720FFF708FF0028DCD10620C4F808802A
:10331000C4E90050C4E90367204604F059FE0620C2
:10332000FFF7F9FECEE72520CCE710B56649044645
:1033300000200978032918D019B1012901D00229E8
:1033400012D1B4F5805F10D0E0B2FFF7ADFF0028D6
:103350000AD15B49091D0A6822F4C0520A600A6852
:1033600022430A600A680A6010BD272010BD244964
:1033700010B5503908600720486040208860002060
:10338000C8604FF480600861084604F021FEBDE883
:1033900010400720BFE62DE9F0474B49DFF860A059
:1033A0000B7880F856300989AAF1240AA0F8541045
:1033B000DAF800100A0E95090570C2F3830545700E
:1033C00002F0030282700A0CC2700A0A0271417193
:1033D000DAF80420110E0C01C2F3074144EA11147B
:1033E00001F00F08C480C2F3072180F80880CC09DF
:1033F0004472C1F380148472C1F34014C47265E056
:10340000A01900204361726420547970653A5344D6
:1034100053432056312E310D0A000000436172647F
:1034200020547970653A534453432056322E300D60
:103430000A00000043617264204D616E756661632D
:10344000747572657249443A25640D0A00000000E3
:1034500043617264205243413A25640D0A00000022
:10346000436172642043617061636974793A2564D1
:10347000204D420D0A0000004361726420426C6FCF
:10348000636B53697A653A25640D0A0D0A000000E2
:103490004361726420547970653A5344484320561E
:1034A000322E300D0A00000043617264205479709E
:1034B000653A4D4D4320436172640D0A00000000DF
:1034C000002C0140FF07C000D0000020C1F3001411
:1034D00004734FF0000C544680F80DC0A4684FF000
:1034E0000109260EC4F30745C4F3072733B1012BA6
:1034F00004D0032B02D0022B30D03EE08907090D07
:10350000D2B241EA820141EA9612C6F3C2010261D7
:10351000017506F00701417569098175C5F38201DE
:10352000C175A9074B0F394643EAD1150576AD1C85
:1035300009FA05F3DE17521CA2FB03570CFB0373B9
:1035400002FB063309FA08F2A5FB0267026503FBDA
:10355000027205FB0C22C0E912620EE09106890A94
:1035600041EA06222A430261521C530BD204C0E9ED
:1035700012234FF4007239460265C1F3801242767D
:1035800089064A0EE1B242EAD11200F81A2F01F080
:103590007F014170DAF80C20110ECB098370C1F362
:1035A0004113C370C1F38203037189070B0FC2F388
:1035B000074143EA91134371C1F34013837180F8CB
:1035C00007C001F001010172C2F30721CB09437268
:1035D000C1F380138372C1F34013C372C1F30013AC
:1035E0000373C1F38103437301F003018173C2F3D9
:1035F0004601C1734B4680F81090FE4A11680C0ECC
:1036000084740C0CC1F3072545EA042484820C065B
:1036100051680D0E44EA0544C1F3074544EA052408
:10362000C1F307252C43C0F8164000F81A1F916813
:103630000C0E44700C0CC1F30725240644EA054423
:10364000C9B244EA0124D16844EA1164C1F30742D3
:103650004460047A44EA12140472C1F30724120786
:1036600044EA12524281C1F346010173437360463A
:10367000BDE8F08710B500244FF48031DE4809E042
:10368000026812F0450F05D009B1500705D5032493
:1036900004200CE0491EF3D2F7E7012004F01DFDE1
:1036A00018B10124204604F021FD40F2FF5004F03F
:1036B0001DFD204610BD70B50646CF480D460024BE
:1036C000026812F0450FFBD0042004F006FD20B183
:1036D000042004F00BFD032070BD012004F0FDFC6C
:1036E00020B1012004F002FD012070BDC248243841
:1036F0000068B04212D140F2FF5004F0F7FCBE481F
:103700002038026812F4604F03D0900404D51320CF
:1037100070BD100C288007E0500401D5102070BD4A
:10372000100401D50F2070BD204670BD2DE9F84F63
:103730000120ADF8000004F045FCC8B3AF4F387865
:1037400004287DD0AB4C00253C3C0220E4E802502C
:10375000C0204FF4806684E86100A648083C3C38ED
:1037600004F036FCFFF786FF002823D1DFF888A29B
:10377000AAF1200ADAF800109E480AF1040B016051
:10378000DBF8001041600BF10401096881609A497F
:1037900014390968C16038784FF003084FF04009C8
:1037A00050B1012808D0062806D0022804D011E024
:1037B000FFE72520BDE8F88F84E820038D48C4E9A1
:1037C00003563C3804F004FC69460320FFF773FFFE
:1037D0000028EFD1387803280ED1BDF8000000048E
:1037E00084E801038348C4E903563C3804F0F0FB45
:1037F000FFF740FF0028DDD13878042823D0BDF83A
:103800000000B860000401C4092001C4C02084E89D
:10381000610078483C3804F0DBFBFFF72BFF002801
:10382000C8D1DAF80010734810380160DBF80010D6
:10383000416071491839096881606F49143900E0A5
:1038400001E00968C1600020B4E710B56A49086862
:1038500010F0450FFBD0042004F03FFC20B1042001
:1038600004F044FC032010BD40F2FF5004F03EFC85
:10387000002010BD10B500244FF480325E4809E0EE
:10388000016811F0450F05D00AB1480705D503249A
:10389000042006E0521EF3D2F7E7480603D50024C1
:1038A000402004F023FC204610BD70B500254FF4E5
:1038B000803405E0802004F010FC08B144B101E040
:1038C000641EF7D240F2FF5004F010FC284670BD91
:1038D000032070BD2DE9F05F00274648762154385B
:1038E0003E460175076047608760C7603C463D46BD
:1038F000B946B846076104F041FB032004F05EFBC3
:103900003D483038016841F480710160DFF8E4A07F
:103910004FF4806BAAF13C0A3648CAF80080CAF816
:103920000480CAF80880CAE9038B3C3804F050FBD5
:10393000FFF7BBFF28B17F1CFFB24A2FECD3BDE8D5
:10394000F09F4FF4D570CAF8000008205746CAF817
:1039500004004020C7E902080001CAF81000254809
:103960003C3804F035FBFFF785FF20B923490120DF
:103970004FF080490870BA46384641463722402702
:1039800080E88600C0F80C801A483901C3463C38EC
:10399000CAF8101004F01CFB3720FFF7BCFB4FF6F1
:1039A000FF7830B35646DFF85090BA464FF4806B3C
:1039B0000127A9F120092DB354E055463720C5E968
:1039C00000B04FF48068CAF810800A48C5E9027B4D
:1039D0005E463C3804F0FCFA3720FFF79CFB0028D9
:1039E000ADD1074949EA010028602920C5E901074E
:1039F00009E015E08C190020342C0140D000002093
:103A0000000010802CE0C5E90368FB4804F0E0FAF0
:103A1000FFF71BFF002892D1F8490E68F50F641CD0
:103A20001DB94FF6FF718C42C7D34FF6FF718C4220
:103A30001AD216F0804F82D0022218E0F04886E8B1
:103A400081040020C6E9030BEB4804F0C1FAFFF73C
:103A5000FCFE0028C4D1D9F80010CD0F641CAAE7E1
:103A60004445EBD3444501D31B2068E70322E549D5
:103A70000A7064E72DE9FE4300250121E24803F0C6
:103A8000A4F80121CE02304603F0C7F801213046E8
:103A900003F0F5F84FF4F850009002208DF8040080
:103AA0008DF805000024DFF864938DF806400127A7
:103AB0008DF807706946484602F084FE0420DFF85E
:103AC000508300906946404602F07CFE0C2208219B
:103AD000484602F0EBFE0C220921484602F0E6FEC1
:103AE0000C220A21484602F0E1FE0C220B21484636
:103AF00002F0DCFE0C221146484602F0D7FE0C22F2
:103B00000221404602F0D2FE0021304603F0B7F811
:103B1000FFF7D8FA31208DF808008DF809408DF8AC
:103B20000A408DF80B7002A802F08DFDFFF7D2FE5F
:103B3000B14C503480B9FFF7F9FD68B92046FFF762
:103B40002AFC48B9B4F854000004FFF710FC18B977
:103B50003046FFF7EAFB18B1AA49097803290BD1CF
:103B600094F8560008B1012800D102252846FFF735
:103B7000CAFA0020FFF7BDFABDE8FE8310B50020A9
:103B800004F01CFA002010BD70B5A24E90B015468E
:103B90000446304604F0CDF80028FAD1304603F050
:103BA000C3FF4FF000600090944801A96C3081E899
:103BB000310000204FF480610490CDE905018900B7
:103BC00007918900CDE908104FF440300A90042095
:103BD0000B9003200C9048020D9080100E906946C7
:103BE000304604F029F82021304604F072F8012113
:103BF000304604F05AF810B070BD002102E04008D1
:103C0000491CC9B20128FAD1084670472DE9F84F7E
:103C100017460A9E05004FF0FF3466D0DFF8DCA19E
:103C200000200AF1180ACAF80000DFF8D89199F8C4
:103C30000010022903D10E02570A47EAC357014672
:103C40006D4801221430A0468160C0E90041C16086
:103C5000C0E9041204F0E2F968480068800101D567
:103C60000E20A7E5701EB0F5006F3ED206423CD193
:103C70003046FFF7C2FF00905F4810214FF4806B81
:103C8000C0E90061402181600021C0E9031B04F00C
:103C90009FF91020FFF73FFA0028E2D100980101B8
:103CA00055481430C0F80080C0E90161012141612C
:103CB00002214FF00008C0E9031804F0AFF94E48A4
:103CC0001121E0E80271402180E802094A4804F02D
:103CD0007FF91120FFF71FFA0700C2D199F8010000
:103CE000494620B101285DD083E0262062E5FCF73B
:103CF000D4FA424EDFF804916C364FF4004BDFF8F3
:103D0000188109F1200940F22A6A10E0584604F0AF
:103D1000E4F948B10020316845F82010401C08281B
:103D2000F9D34446203502E0002C79D0641ED9F83E
:103D3000000010EA0A0FE9D0082004F0CEF918B10B
:103D4000082004F0D3F96BE0022004F0C6F920B19A
:103D5000022004F0CBF902202CE5202004F0BDF96C
:103D600020B1202004F0C2F9062023E54FF40074AE
:103D7000204604F0B2F938B1204604F0B7F9072024
:103D800018E5306801C501E04FF40014204604F046
:103D9000A4F90028F5D1FCF782FA40F2FF5004F0B4
:103DA000A5F926E04046C846C870887008711349D6
:103DB0002831086840F22A3210430860DAF800100F
:103DC00041F00801CAF80010002231462846FFF7EA
:103DD000DBFE10494046583900E0641E0A681201B3
:103DE00003D402790AB9C278C2B1CCB1C17801B1A9
:103DF000C7783846DEE4000050190020142C01403A
:103E00000080FF80D00000200C004000000802402D
:103E1000000C024058640240FFFF7F00002CDCD100
:103E20000420C7E42DE9FF5F82B0DFF8F8B3DDE9D5
:103E300010680299CBF80C10FB49002517464FF08B
:103E4000FF340D609BF80000022803D10602570AD8
:103E500047EAC357DFF8D4A301215046CAF80850F7
:103E6000CAF81410C0E90045CAF80C50A146CAF8B7
:103E7000105004F0D3F8EC4818380068800102D5DF
:103E80000E2006B05BE5701EB0F5006F21D2064231
:103E90001FD13046FFF7B1FE0090E44810211438DE
:103EA000C0E90061402181600021C1604FF4806160
:103EB000016104F08DF81020FFF72DF90500E0D125
:103EC0004046B8F1010F36D900FB06F8B8F1007F83
:103ED00001D32620D5E70098CAF80090010150468A
:103EE0004FF00009C0E901810121CAF81410022134
:103EF000CAE903194D46CD4804F090F8DFF82CA329
:103F00001221AAF1140A5046C0E900714021CAE901
:103F100002150901CAF8101004F05AF81220FFF730
:103F2000FAF80500ADD15E469BF8010040F22A3B4D
:103F300010B1012877D0A0E0FCF7AFF9BA4FD8460E
:103F4000543713E04FF4004004F0C7F858B1F1685B
:103F500000203A6841F82020401C0828F9D320317D
:103F6000B34CF16002E0002C7DD0641EAE480830F6
:103F7000006810EA080FE5D0082004F0AEF818B188
:103F8000082004F0B3F86EE0022004F0A6F820B197
:103F9000022004F0ABF8022073E7202004F09DF823
:103FA00020B1202004F0A2F806206AE74FF4007444
:103FB000204604F092F848B1204604F097F8072014
:103FC0005FE73968F06802C0F06001E04FF4001468
:103FD000204604F082F80028F3D14FF4807004F0FA
:103FE0007CF8C0B1307818B1012801D0022812D174
:103FF00050460C22C0E900924022CAE902298B48AF
:1040000011011438CAF8101003F0E2FF0C20FFF77A
:1040100082F80500C0D1FCF742F940F2FF5004F0ED
:1040200065F82AE0FFE786F803900121B17086F871
:1040300004907D481030016841EA0B0101607A4824
:10404000016841F008010160414600220298FFF733
:104050009BFD784800E0641E0168090102D4002C31
:10406000F9D100E00CB904200BE7307910B9F078F1
:104070000028FAD0F07800B1F578284601E71CB5A1
:1040800004460021674800910191008902046748B5
:10409000143802600D2242604022C0E90221110161
:1040A000016103F095FF60490831086801900246FC
:1040B00001E00A68019212F0450FFAD0012004F0E5
:1040C0000CF820B1012004F011F801201CBD0420DF
:1040D00004F003F820B1042004F008F803201CBD0C
:1040E00051481C3800680D2801D010201CBD40F23A
:1040F000FF5003F0FBFF4C48183800680090C0F3F5
:104100004320207000201CBD2DE9FC5F4FF000050E
:104110000C9F90469B4604008DF800502E46B946F1
:1041200061D0414805604148691E8560C0E90015BD
:104130000121C560C0E9045103F070FF3A48183806
:104140000068800102D50E20BDE8FC9FDFF8D4A0F6
:104150009AF80000022804D107024FEA582040EAEA
:10416000CB58781EB0F5006F3DD207423BD13846A0
:10417000FFF743FDDFF8B4B00190ABF1140B5846E4
:104180001021C0E900714021CBE902150901CBF8EB
:10419000101003F01DFF1020FEF7BDFF0028D3D143
:1041A0002048DA4600890104CBF800100D2158465A
:1041B000CBF804104021C0E902151C480901AB46A8
:1041C0001438CAF8101003F003FF0D20FEF7A3FF08
:1041D0000028B9D1144918390868DA464FF0FF357C
:1041E000DFF840B019E02620AEE7BBF808006D1EEE
:1041F00001040E48143801600D2141604021C0E9DE
:10420000021A0901016103F0E3FE0D20FEF783FFAE
:10421000002899D1044818380068C0050CD4002D36
:10422000E3D138E0D00000202C2C0140641900209C
:10423000FFFF7F00006402406DB3FE481821554621
:10424000C0E900814021C0E9021A0901016103F0BF
:10425000BFFE1820FEF75FFF0028C5D18BF8025083
:104260000198DA460201F3484FF0FF3B143029462B
:10427000C0F800B0C0E901720122C160C0E90412B7
:10428000A8465D4603F0CAFE9AF8010028B15646DA
:10429000012863D097E0292056E7FBF7FEFFDFF8FF
:1042A0009883E54FA8F14C0840F21A6A24E04FF4D5
:1042B000804003F012FFE8B1A9EB060020280DD2E0
:1042C00081074FEA900100D0491C002003E004CC94
:1042D0003A60401C361D8842F9D308E0002054F8AB
:1042E00020103960401C0828F9D3203420366FF0A4
:1042F000404501E08DB36D1ED8F8000010EA0A0FAA
:10430000D5D0082003F0E9FE18B1082003F0EEFE36
:1043100057E0022003F0E1FE20B1022003F0E6FEA8
:10432000022011E7102003F0D8FE20B1102003F086
:10433000DDFE052008E74FF40074204603F0CDFEB3
:1043400020B1204603F0D2FE0720FDE6FBF7A7FFD1
:1043500040F2FF5003F0CAFE35E032E086F80380F9
:1043600086F8028086F80480B3484438016840F239
:104370001A3211430160402239462046FFF704FCFF
:10438000AD485438016841F008010160AB4800E0D5
:104390006D1E0168090102D4002DF9D102E00DB1B2
:1043A000584603E0FFF766FB0BE0401E317909B980
:1043B000F17821B128B1F07828B1F078C4E600286E
:1043C000F3D10420C0E640F2FF5003F08FFE6846B0
:1043D000FFF755FE0028A4D19DF800100729F6D05C
:1043E0000629F4D0B0E62DE9FC5F4FF00001DDE9CD
:1043F0000C6791469B4604008DF800100D4607FBA4
:1044000006FA46D08C48543801608A484A1E143057
:104410008160C0E900210122C160C0E9041203F0FB
:10442000FDFD85486C380068800101D50E208BE6C3
:1044300083480078022804D106024FEA592040EA56
:10444000CB59701EB0F5006F23D2064221D1304601
:10445000FFF7D3FBDFF8DCB1019058461021C0E92B
:1044600000614021CBF808100021CBF80C104FF46C
:104470008061CBF8101003F0ABFD1020FEF74BFE6F
:104480000028D4D1012F63D907FB06F8B8F1007FCB
:1044900001D3262058E66A48007818B1012801D0D7
:1044A00002282BD166484026008901045846CBF8E3
:1044B00000103721C0E901160021CBF80C103101A2
:1044C0005C48CBF8101003F083FD3720FEF723FE85
:1044D0000028ACD158461721CBF80070C0E901166E
:1044E0000021CBF80C1031015248CBF8101003F02A
:1044F0006FFD1720FEF70FFE002898D14D481921B7
:10450000C0E9009140214FF00009C0E902190901FA
:10451000016103F05DFD1920FEF7FDFD002886D145
:1045200001984FF0FF360101424801271430066020
:10453000C0E90181C0F80C90C0E9049703F06EFD5A
:10454000DFF8FCB09BF8010018B15D46012870D07F
:10455000B5E0FBF7A2FE384F40F21A3825E04FF4E1
:10456000804003F0BAFDE8B1AAEB050020280DD287
:1045700081074FEA900100D0491C002003E004CCE1
:104580003A60401C2D1D8842F9D308E0002054F801
:1045900020103960401C0828F9D3203420356FF0F2
:1045A000404602E0002E0DD0761E23484C380068AD
:1045B00010EA080FD3D0082003F08FFD18B10820AF
:1045C00003F094FD79E0022003F087FD20B1022082
:1045D00003F08CFD0220B7E5102003F07EFD20B132
:1045E000102003F083FD0520AEE54FF40074204653
:1045F00003F073FD20B1204603F078FD0720A3E50A
:104600004FF4807003F069FD00B39BF8000018B10F
:10461000012801D0022819D106480C22C0E90092D5
:104620004022C0E902291101016103F0D1FC0C20F4
:1046300008E012E050190020802C01400064024084
:10464000D0000020FEF767FD0028C4D1FBF727FE4D
:1046500040F2FF5003F04AFD31E085F80390AF705F
:1046600085F80490AB48016840F21A3211430160AA
:10467000414640222046FFF787FAA64810380168D5
:1046800041F0080101603046A34900E0401E0A687D
:10469000120102D40028F9D100E018B9FFF7EAF9B5
:1046A0000BE0761E287908B9E87820B12EB1E878B9
:1046B00028B1E87848E5002EF3D1042044E540F223
:1046C000FF5003F013FD6846FFF7D9FC00288BD19B
:1046D0009DF800100729F6D00629F4D034E52DE91D
:1046E000F0414FF4807003F0F8FC8A4C8B4D4CF293
:1046F0003A3610B3A878002101280ED0E970854819
:10470000001F016841F4807101602068B04320609F
:1047100001202871E878BDE8F08181480C22C0E9C9
:1047200000124022C0E902211101016103F050FC96
:104730000C20FEF7F0FCE870E1E7022003F0CDFC6E
:1047400040B1022003F0D2FC2068B0432060022078
:10475000E870E0E7082003F0C0FC40B1082003F057
:10476000C5FC2068B04320600420E870D3E7202017
:1047700003F0B3FC40B1202003F0B8FC2068B04344
:1047800020600620E870C6E7102003F0A6FC40B1C8
:10479000102003F0ABFC2068B04320600520E870D7
:1047A000B9E74FF40077384603F097FC0028B2D001
:1047B000384603F09BFC2068B04320600720E87077
:1047C000A9E710B508F014F8FFF789FFBDE810401D
:1047D00008F019B810B5040019D050480089010438
:1047E0004F4801600D214160402181600021C1607E
:1047F0004FF48061016103F0EBFB0D20FEF78BFCB1
:10480000002803D1434928390968216010BD2620BA
:1048100010BD08B5002000906846FFF7DBFF08B127
:10482000FF2008BD0098C0F3432008BD2DE9FC47D8
:104830000027CD0D4E028046810791464FF400704F
:104840001BD00024824615E06002821945EBE0731C
:104850003348CDF800A000F1A800FFF7D7F93049A0
:1048600007465246A83140460BF062FF641C08F52B
:104870000078E4B24C45E7D30AE0B9F1010F0AD061
:10488000CDE9000932462B464046FFF7CBFA0746F2
:104890003846BDE8FC87009032462B464046FFF77D
:1048A000B5F9F4E72DE9FC470746CD0D4E029046D9
:1048B0000020BA074FF400711AD00024894614E092
:1048C00017484A463946A8300BF032FF6002821979
:1048D00045EBE0731248CDF8009000F1A800FFF717
:1048E00013FC641CE4B207F500774445E8D3D0E735
:1048F000B8F1010F07D0CDE9001832462B463846F3
:10490000FFF771FDC5E732462B4638460091FFF7A9
:10491000FBFBBEE73C2C014000640240D0000020BD
:1049200050190020052003F0DEBD1CB50121022036
:1049300002F04BF9C020009003208DF805000124FF
:104940008DF8044000208DF806008DF80740694678
:10495000C34801F037FFC348C0F89842C0F89C42F2
:104960001CBD1CB580218DF8040003208DF80500C6
:1049700000208DF80600012000918DF8070069469F
:10498000B74801F01FFF1CBD70B50120FFF7E9FF1C
:10499000B44C0120C4F89C02C4F89802052004F528
:1049A000267403F0A0FD00256560052003F09BFD43
:1049B0002560BDE87040052003F095BD70B501206D
:1049C000FFF7CFFFA74C0125C4F898520020C4F888
:1049D0009C02052004F5267403F085FD6560BDE8A2
:1049E0007040052003F07FBD70B50120FFF7B9FFCF
:1049F0009C4C0026C4F898620125C4F89C520520FE
:104A000004F5267403F06FFD2560052003F06BFDAF
:104A1000266070BD70B5934D0120C5F89802052041
:104A200003F061FD0020FFF79CFFD5F81C0208B1E0
:104A3000012400E000240020C5F89802052003F0BE
:104A400052FD204670BD2DE9F04180460120FFF760
:104A500088FF844E0027C6F89872C6F89C7205201D
:104A600003F041FD0724012505FA04F010EA080FC0
:104A700002D0C6F89C5201E0C6F89C72052003F0F3
:104A800032FDC6F89852052003F02DFDC6F8987245
:104A9000052003F028FD641EE6D5BDE8F0812DE970
:104AA000F041002408252046FFF75BFF00276D4EEC
:104AB0004FF001080EE0052003F015FDC6F89882BE
:104AC000052003F010FD6006040ED6F81C0208B1A4
:104AD00044F001046D1EEDB2C6F89872EBD2204688
:104AE000DBE770B515460E460446FFF74DFF60063E
:104AF000000EFFF7A8FFFFF78DFF012819D0304601
:104B0000FFF7A1FFFFF786FFFFF73EFF012000EB55
:104B10004400C0B2FFF797FFFFF77CFF012808D0E1
:104B2000FFF7BDFF2870FFF75FFFFFF747FF00208B
:104B300070BDFFF743FF012070BD70B515460E46EE
:104B40000446FFF721FF6006000EFFF77CFFFFF72A
:104B500061FF01280DD03046FFF775FFFFF75AFFC0
:104B60002846FFF770FFFFF755FFFFF727FF0020EC
:104B700070BDFFF723FF012070BD2DE9F0411D46F8
:104B800016460C460746FFF7FFFE7806000EFFF7B5
:104B90005AFFFFF73FFF012814D02046FFF753FFCD
:104BA000FFF738FF002407E0285DFFF74CFFFFF711
:104BB00031FF012806D0641CB442F5DBFFF7FEFE8E
:104BC00000206AE7FFF7FAFE012066E72DE9F041D1
:104BD0001D4614460E460746FFF7D6FE7806000E21
:104BE000FFF731FFFFF716FF01282ED03046FFF701
:104BF0002AFFFFF70FFFFFF7C7FE012606EB47006E
:104C0000C0B2FFF720FFFFF705FF01281DD0B04617
:104C1000144E002704B3FFF742FF2870012C18D070
:104C20000120FFF79EFEC6F89872C6F89C72052018
:104C300003F059FCC6F89882052003F054FCC6F82E
:104C40009872641EE4B26D1CE4E7FFF7B7FE012022
:104C500023E7FFF7C9FEF4E7FFF7B0FE00201CE7EB
:104C6000000402400080404208B56A46FFF739FF61
:104C70009DF8000008BD70B541EA00100C46C5B2B1
:104C8000032909D909217720FFF7EEFF40F004023C
:104C900009217720FFF751FFFE48082C21D2DFE8D9
:104CA00004F02004071114171A1D4FF4C01101E07D
:104CB0004FF46011C1602A46BDE87040062177209C
:104CC000FFF73BBF4FF4F001F4E74FF47831F1E721
:104CD0004FF4FC21EEE74FF47E21EBE74FF4FF1198
:104CE000E8E74FF40021E5E770B50C46D10141EA51
:104CF00000102043C5B2032C09D909217720FFF702
:104D0000B3FF40F0080209217720FFF716FFE148C2
:104D1000082C21D2DFE804F02004071114171A1D13
:104D20004FF4C01101E04FF4601101612A46BDE863
:104D3000704007217720FFF700BF4FF4F001F4E740
:104D40004FF47831F1E74FF4FC21EEE74FF47E2188
:104D5000EBE74FF4FF11E8E74FF40021E5E7082106
:104D6000772081E7024608217720FFF7E6BE02227E
:104D700008217720FFF7E1BE012208217720FFF705
:104D8000DCBE002208217720FFF7D7BE70B50D46A4
:104D9000044609217720FFF767FF012D02D020EAA2
:104DA000040201E040EA0402BDE8704009217720D6
:104DB000FFF7C3BE10B5044609217720FFF754FF63
:104DC00000F0F70222430921BDE810407720FFF7E9
:104DD000B4BE10B5044609217720FFF745FF00F067
:104DE0007F0040EAC410C2B20921BDE8104077201C
:104DF000FFF7A3BE0A21772036E70B21772033E7A0
:104E000009220C217720FFF798BE80220C21772001
:104E1000FFF793BE0D21772026E72DE9F041102101
:104E20007720FFF721FF044611217720FFF71CFFB1
:104E30002101984C41EA1010183C0105208001D551
:104E400040F47040208011217720FFF70DFF0546C8
:104E500012217720FFF708FF05F00F0140EA01203B
:104E60006080010501D540F47040608013217720F7
:104E7000FFF7FAFE054614217720FFF7F5FE0646F8
:104E800015217720FFF7F0FE290341EA061141EAD8
:104E90002010814D6060010300D52843606015211A
:104EA0007720FFF7E1FE064616217720FFF7DCFEAC
:104EB000074617217720FFF7D7FE310441EA072183
:104EC0000143A160080300D52943A1601821772080
:104ED000FFF7CAFE054619217720FFF7C5FE40EA15
:104EE0000520A0811A217720FFF7BEFE05461B2171
:104EF0007720FFF7B9FE40EA0520E0811C217720EA
:104F0000FFF7B2FE05461D217720FFF7ADFE40EA10
:104F1000052020821E217720FFF7A6FE05461F21CF
:104F20007720FFF7A1FE40EA05206082202177204C
:104F3000FFF79AFE054621217720FFF795FE40EA0C
:104F40000520A082BDE8F08110B5FFF708FF00063C
:104F5000FBD5FFF762FFFFF702FF4006FBD5FFF727
:104F600059FF4C4908700121B1EB101F01D00120FD
:104F700010BD05210720FFF77EFE01220321052039
:104F8000FFF7B2FE0720FFF7EDFE002010BD70B561
:104F900003217720FFF768FE054604217720FFF7FD
:104FA00063FE044605217720FFF75EFE01462804D4
:104FB00040EA0420084337490202886001D540F0E6
:104FC0007F40886070BD70B500217720FFF74CFEF0
:104FD000054601217720FFF747FE0446022177208E
:104FE000FFF742FE0146280440EA0420084329490D
:104FF0000202486001D540F07F40486070BD10B5A6
:1050000024482DED028BA0F1180490ED020AF8EE71
:10501000C00A90ED040AB4F90200B8EEC01A80EE9E
:10502000810A00EE900AF8EEE00A20EE800A10EE07
:10503000100A0EF097FE41EC180BB4F900000EF0C8
:1050400034FB9FED161B53EC112B0EF095FB53EC2C
:10505000182B0EF07DF80EF049F8BDEC028B00EE37
:10506000100A10BD0B4890ED020AB8EEC01A90ED80
:10507000040AB8EEC00AC1EE000A90ED010AB8EECB
:10508000C01A90ED030A1838F8EEC01A81EE210A12
:1050900008E00000101C00200000F0FF00000000ED
:1050A0000000E03FB0F9101001EE101AB0F9141032
:1050B00001EE901AB8EEC11AB0F90E10F8EEE11A2E
:1050C00000EE211AD0ED021AF8EEE11A40EE011AB4
:1050D00001EE101AB0F9121002EE101AB8EEC11A51
:1050E000B8EEC22A00EE021A20EE802A21EE021A41
:1050F00090ED012AB0F90C00B8EEC22A00EE212A88
:1051000000EE100AB8EEC00A00EE802A32EE010A64
:10511000704710B5FFF73BFFBDE810406FE710B5D3
:10512000FFF751FFBDE810409CE7000070B501217A
:1051300090B0880501F049FD564E304602F0F4FC6F
:1051400055480024CDE900405448CDE902045448B4
:105150000AA901250088CDE9040430150690400015
:1051600007908000089040110990400281E83100CA
:105170000D94694630460E9402F05EFD01213046E2
:1051800002F093FD4749304602F03DFE0122102116
:10519000304602F0FFFD38208DF83C008DF83D4090
:1051A00003208DF83E008DF83F500FA801F04BFA18
:1051B000394C01214C3C204603F0B6F80121204631
:1051C00003F0A8F8072301221946204603F02FF820
:1051D000204603F066F810B070BD30B501218DB0E7
:1051E000084601F0F2FC01210D02284601F015FDF0
:1051F000032080218DF82C000A9100248DF82F4087
:105200000AA9294801F0DEFA0121284601F037FDFC
:105210000021284601F033FDA801CDE908048000F3
:105220000790069406A802F0B8FF00948DF8044099
:10523000029404940120184C8DF805008DF8140098
:105240004C3C6946204602F07DFF0121204602F0D9
:10525000BBFFFFF76BFF0DB030BD70B507F0C8FAAC
:10526000124D0C4C2946204602F0AAFD18B12946E1
:10527000204602F0C8FD0B4D2046294602F0A0FD55
:1052800018B12946204602F0BEFDBDE8704007F087
:10529000BABA0000106402404C200140241C0020D7
:1052A000E0000020208000100000024010400010AC
:1052B00010B5012190B0480501F087FC864C2046CE
:1052C00002F032FC204602F034FD0028FAD14FF003
:1052D000006000908148019081480290814900203F
:1052E00003900978CDE904104FF48061CDE90610F0
:1052F0008910CDE908010902CDE90A100321CDE9A1
:105300000C100E906946204602F096FC734801226C
:105310004021001F01F0BBFE0121204602F0C5FC28
:1053200010B010BD2DE9F0438146012187B0084639
:1053300001F04BFC0121480401F065FCDFF8A88175
:1053400007220221404601F0B1FA0722032140461C
:1053500001F0ACFA02258DF814508DF81550002498
:105360000C268DF81640012704968DF8177004A9B5
:10537000404601F027FAADF80840ADF80A60574EF4
:10538000ADF80440361FCDF80090ADF80640ADF8FA
:105390000C406946304601F072FD002240F2277150
:1053A000304601F07CFE002240F22551304601F0EB
:1053B00076FE012240F22441304601F070FE402189
:1053C000304601F08BFE0121304601F0C9FD262058
:1053D0008DF818008DF819408DF81A508DF81B7053
:1053E00006A801F030F9FFF763FF07B0BDE8F083CE
:1053F00070B507F0FDF9394E40F22445361F2946B5
:10540000304601F06EFE002862D0334C0021204669
:1054100002F04BFC324A33481178C82944D1517804
:10542000182941D1917816293ED1117DE1BB517DDA
:10543000D1BBB2F80310C1F30A0141601179CB0866
:10544000517943EA4113C3F30A03836093798909CD
:1054500041EA8303D17943EA8123C3F30A03C3609A
:105460004B08117A43EAC113C3F30A0303610B0922
:10547000517A43EA0113C3F30A034361937AC909DA
:1054800041EA4303D17A43EA4123C3F30A03836128
:105490008B08117B43EA8113C3F30A03C361527B78
:1054A000490941EAC20101628169B1F5617F01D90F
:1054B000012100E0002141700178204602F013FC38
:1054C0000121204602F0F1FB2946304601F028FE7A
:1054D000BDE8704007F097B988600240044400407E
:1054E000044B0020E40000200000024010B5012120
:1054F00090B0480501F069FBF64C204602F014FB21
:10550000204602F016FC0028FAD14FF0006000900F
:10551000F1480190F1480290F14900200390096898
:10552000CDE904104FF48061CDE906108910CDE972
:1055300008010902CDE90A100321CDE90C100E90F3
:105540006946204602F078FBE34801224021001F13
:1055500001F09DFD0121204602F0A7FB10B010BD17
:105560002DE9F041804688B00121022001F02DFB99
:105570000121880401F047FBDA4F07220A2138464F
:1055800001F094F907220B21384601F08FF902252A
:105590008DF814504FF440608DF81550002404909D
:1055A0008DF8164001268DF8176004A9384601F0E1
:1055B00009F9C94FADF808400C20ADF80440ADF82A
:1055C0000A003F1FCDF80080ADF80640ADF80C4052
:1055D0006946384601F053FC002240F227713846F4
:1055E00001F05DFD002240F22551384601F057FDE3
:1055F000012240F22441384601F051FD4021384655
:1056000001F06CFD0121384601F0AAFC27208DF83D
:1056100018008DF819408DF81A508DF81B6006A8F7
:1056200001F011F8FFF762FF08B0BDE8F0812DE945
:10563000F84F07F0DDF8A84C40F2244A241F5146E9
:10564000204601F04EFDE8B32088A146201D0088C9
:10565000A04F00900021384602F027FB384602F0A8
:1056600044FBDFF87C829D4EB8F80010081A84B223
:105670003078FC2821D1351915F8010CFD281CD1F2
:10568000707840280ED1402C17D131462246A1F522
:10569000987000F009FB3078FC280ED115F8010C49
:1056A000FD280AD17078632807D1142C05D18B49C5
:1056B0002246A1F5987000F0F7FA8B49384602F0BF
:1056C00058FB00E00DE0B8F8000081B2384602F067
:1056D0000AFB0121384602F0E8FA5146484601F03B
:1056E0001FFDBDE8F84F07F08EB82DE9F041A0B0DE
:1056F00000257EA168460AF0B7FE774F6E463F1F31
:105700004FF47A78002404E0315D384602F0D2FF8D
:10571000641C68460AF0EDFFA042F5D8404602F04E
:1057200001FF6D1C042DEDDB002020B07DE770B57E
:10573000A0B00246002470A168460AF095FE664EAD
:105740006D46361F04E0295D304602F0B3FF641C4D
:1057500068460AF0CEFFA042F5D84FF47A7420468E
:1057600002F0E0FE204602F0DDFE002020B070BD19
:1057700070B5A0B00B460246002464A168460AF04A
:1057800073FE554E6D46361F04E0295D304602F02B
:1057900091FF641C68460AF0ACFFA042F5D84FF4B4
:1057A0007A74204602F0BEFE204602F0BBFE0020C6
:1057B000DCE770B5A0B0002458A168460AF054FE9A
:1057C000454E6D46361F04E0295D304602F072FFFB
:1057D000641C68460AF08DFFA042F5D84FF47A7435
:1057E000204602F09FFE204602F09CFE0020BDE70E
:1057F00070B5A0B000244BA168460AF035FE364EC5
:105800006D46361F04E0295D304602F053FF641CEC
:1058100068460AF06EFFA042F5D84FF47A7420462D
:1058200002F080FE204602F07DFE00209EE770B56B
:10583000A0B000243EA168460AF016FE264E6D4632
:10584000361F04E0295D304602F034FF641C6846D0
:105850000AF04FFFA042F5D84FF47A74204602F0C8
:1058600061FE204602F05EFE00207FE7F0B5A1B0A9
:10587000002433A168460AF0F7FD174E6D46361F27
:1058800004E0295D304602F015FF641C68460AF00A
:1058900030FFA042F5D84FF47A77384602F042FE46
:1058A000384602F03FFE29A168460AF0DDFD0024DB
:1058B00004E0295D304602F0FDFE641C68460AF0F3
:1058C00018FFA042F5D8384602F02CFE21B0002087
:1058D000F0BD00002860024004480040504C002009
:1058E0000801002000040240400F00102366636F8F
:1058F0006E6669670D0A00002366706172616D2033
:105900006765742025730D0A0000000023666D731F
:10591000672025732025640D0A00000023666D733F
:10592000670D0A002366736176650D0A00000000AA
:1059300023666465636F6E6669670D0A0000000088
:1059400023667265626F6F740D0A0000790D0A009C
:1059500000214160704730B5C2680023002A0BDD8A
:105960004268072A08D1026A00F13004551C05621A
:105970001155016AFF2901D9436030BDC168491E34
:10598000C16030BD00214160C16081600162416140
:1059900070472DE9F0410A4641680025044609296F
:1059A00003D34560E81EBDE8F08104F124004FF008
:1059B000FF360A546168092949D2DFE801F0050F72
:1059C00013161924272D3A002046FFF7DBFFFD2A86
:1059D0002CD0FC2A3BD10120606027E00220C4E9E2
:1059E000010223E00320E260F6E704202261F3E7EE
:1059F0000421A26100F074F9A169884227D1E0680E
:105A000010B30520E8E70620E261E5E7E06942EA35
:105A10000020E0610720DFE7E068082740B1114679
:105A20002046FFF798FFE06800B967600020BAE7FA
:105A30006760FD2A0BD194F8201004F1300000F0CB
:105A40005CF9E169814202D101206560ABE7304633
:105A50006560A8E7026A8A4203D000214160481EBF
:105A600070470020704710B59A4B9B4A3938C0B038
:105A70006C2849D2DFE800F0364848484848483AA0
:105A80003E424848484848484848484848484846A8
:105A90004A4F48535A626B6F73487B7D7F814848F9
:105AA000488183818B48488D8F7F8148484895483D
:105AB0004848974848999B9D91487F484848489F47
:105AC0004848A148A34848A1488D48484848487FCD
:105AD0007F9393484848484848484848484848952C
